{
  "contractName": "StreamFi",
  "abi": [
    {
      "anonymous": false,
      "inputs": [
        {
          "indexed": true,
          "internalType": "address",
          "name": "user",
          "type": "address"
        },
        {
          "indexed": false,
          "internalType": "uint256",
          "name": "amount",
          "type": "uint256"
        }
      ],
      "name": "StreamClaimed",
      "type": "event"
    },
    {
      "anonymous": false,
      "inputs": [
        {
          "indexed": true,
          "internalType": "address",
          "name": "user",
          "type": "address"
        },
        {
          "indexed": false,
          "internalType": "uint256",
          "name": "rate",
          "type": "uint256"
        }
      ],
      "name": "StreamStarted",
      "type": "event"
    },
    {
      "anonymous": false,
      "inputs": [
        {
          "indexed": true,
          "internalType": "address",
          "name": "user",
          "type": "address"
        }
      ],
      "name": "StreamStopped",
      "type": "event"
    },
    {
      "inputs": [],
      "name": "MIN_CLAIM_INTERVAL",
      "outputs": [
        {
          "internalType": "uint256",
          "name": "",
          "type": "uint256"
        }
      ],
      "stateMutability": "view",
      "type": "function",
      "constant": true
    },
    {
      "inputs": [
        {
          "internalType": "address",
          "name": "",
          "type": "address"
        }
      ],
      "name": "balances",
      "outputs": [
        {
          "internalType": "uint256",
          "name": "",
          "type": "uint256"
        }
      ],
      "stateMutability": "view",
      "type": "function",
      "constant": true
    },
    {
      "inputs": [
        {
          "internalType": "address",
          "name": "",
          "type": "address"
        }
      ],
      "name": "streams",
      "outputs": [
        {
          "internalType": "uint256",
          "name": "rate",
          "type": "uint256"
        },
        {
          "internalType": "uint256",
          "name": "lastClaim",
          "type": "uint256"
        },
        {
          "internalType": "bool",
          "name": "active",
          "type": "bool"
        }
      ],
      "stateMutability": "view",
      "type": "function",
      "constant": true
    },
    {
      "inputs": [
        {
          "internalType": "uint256",
          "name": "_rate",
          "type": "uint256"
        }
      ],
      "name": "startStream",
      "outputs": [],
      "stateMutability": "nonpayable",
      "type": "function"
    },
    {
      "inputs": [],
      "name": "stopStream",
      "outputs": [],
      "stateMutability": "nonpayable",
      "type": "function"
    },
    {
      "inputs": [],
      "name": "claimStream",
      "outputs": [],
      "stateMutability": "nonpayable",
      "type": "function"
    },
    {
      "inputs": [
        {
          "internalType": "address",
          "name": "_user",
          "type": "address"
        }
      ],
      "name": "getBalance",
      "outputs": [
        {
          "internalType": "uint256",
          "name": "",
          "type": "uint256"
        }
      ],
      "stateMutability": "view",
      "type": "function",
      "constant": true
    },
    {
      "inputs": [
        {
          "internalType": "address",
          "name": "_user",
          "type": "address"
        }
      ],
      "name": "getClaimedBalance",
      "outputs": [
        {
          "internalType": "uint256",
          "name": "",
          "type": "uint256"
        }
      ],
      "stateMutability": "view",
      "type": "function",
      "constant": true
    }
  ],
  "bytecode": "0x608060405234801561000f575f80fd5b506105468061001d5f395ff3fe608060405234801561000f575f80fd5b5060043610610085575f3560e01c8063cf0e80fe11610058578063cf0e80fe1461011b578063e4951f3214610143578063f3b65fb21461014b578063f8b2cb4f1461015e575f80fd5b806327e235e31461008957806383699275146100bb578063c01d76d514610109578063cd6606e214610113575b5f80fd5b6100a8610097366004610475565b60016020525f908152604090205481565b6040519081526020015b60405180910390f35b6100ec6100c9366004610475565b5f6020819052908152604090208054600182015460029092015490919060ff1683565b6040805193845260208401929092521515908201526060016100b2565b610111610171565b005b6100a8600581565b6100a8610129366004610475565b6001600160a01b03165f9081526001602052604090205490565b610111610205565b6101116101593660046104a2565b61032e565b6100a861016c366004610475565b6103d8565b335f908152602081905260409020600281015460ff166101cc5760405162461bcd60e51b815260206004820152601160248201527053747265616d206e6f742061637469766560781b60448201526064015b60405180910390fd5b60028101805460ff1916905560405133907fc8df9387463bad688e6bee33a5517e1226baa5a9d109b77f5602f6cd46986f9b905f90a250565b335f90815260208190526040902080546102535760405162461bcd60e51b815260206004820152600f60248201526e139bc81cdd1c99585b48199bdd5b99608a1b60448201526064016101c3565b6005816001015461026491906104cd565b4210156102a45760405162461bcd60e51b815260206004820152600e60248201526d21b630b4b6903a37b79039b7b7b760911b60448201526064016101c3565b5f8160010154426102b591906104e6565b82549091505f906102c690836104f9565b335f908152600160205260408120805492935083929091906102e99084906104cd565b909155505042600184015560405181815233907f77f1af9635c992f9b354c06f732cc27c28f021ea0fecfbf4bec2329401c9663f9060200160405180910390a2505050565b5f81116103755760405162461bcd60e51b815260206004820152601560248201527452617465206d75737420626520706f73697469766560581b60448201526064016101c3565b335f81815260208181526040918290208481554260018083019190915560028201805460ff1916909117905591518481529192917f3869caee07d456958a31c5ac828d9dfc10dc42094e29536a52ddd10cbd420413910160405180910390a25050565b6001600160a01b0381165f908152602081905260408120600281015460ff1680156104035750805415155b15610459575f81600101544261041991906104e6565b82549091505f9061042a90836104f9565b6001600160a01b0386165f908152600160205260409020549091506104509082906104cd565b95945050505050565b50506001600160a01b03165f9081526001602052604090205490565b5f60208284031215610485575f80fd5b81356001600160a01b038116811461049b575f80fd5b9392505050565b5f602082840312156104b2575f80fd5b5035919050565b634e487b7160e01b5f52601160045260245ffd5b808201808211156104e0576104e06104b9565b92915050565b818103818111156104e0576104e06104b9565b80820281158282048414176104e0576104e06104b956fea26469706673582212205ffd8eee4165802dfcc6f9d18aa7ed4d9292966775545189513c6b8a9889859064736f6c63430008150033",
  "immutableReferences": {},
  "source": "// SPDX-License-Identifier: MIT\r\npragma solidity ^0.8.0;\r\n\r\ncontract StreamFi {\r\n    struct Stream {\r\n        uint256 rate;\r\n        uint256 lastClaim;\r\n        bool active;\r\n    }\r\n\r\n    mapping(address => Stream) public streams;\r\n    mapping(address => uint256) public balances;\r\n\r\n    uint256 public constant MIN_CLAIM_INTERVAL = 5;\r\n\r\n    event StreamStarted(address indexed user, uint256 rate);\r\n    event StreamStopped(address indexed user);\r\n    event StreamClaimed(address indexed user, uint256 amount);\r\n\r\n    function startStream(uint256 _rate) external {\r\n        require(_rate > 0, \"Rate must be positive\");\r\n        Stream storage s = streams[msg.sender];\r\n        s.rate = _rate;\r\n        s.lastClaim = block.timestamp;\r\n        s.active = true;\r\n        emit StreamStarted(msg.sender, _rate);\r\n    }\r\n\r\n    function stopStream() external {\r\n        Stream storage s = streams[msg.sender];\r\n        require(s.active, \"Stream not active\");\r\n        s.active = false;\r\n        emit StreamStopped(msg.sender);\r\n    }\r\n\r\n    function claimStream() external {\r\n        Stream storage s = streams[msg.sender];\r\n        require(s.rate > 0, \"No stream found\");\r\n        require(block.timestamp >= s.lastClaim + MIN_CLAIM_INTERVAL, \"Claim too soon\");\r\n\r\n        uint256 timePassed = block.timestamp - s.lastClaim;\r\n        uint256 amount = timePassed * s.rate;\r\n\r\n        balances[msg.sender] += amount;\r\n        s.lastClaim = block.timestamp;\r\n\r\n        emit StreamClaimed(msg.sender, amount);\r\n    }\r\n\r\n    function getBalance(address _user) external view returns (uint256) {\r\n        Stream storage s = streams[_user];\r\n        \r\n        if (s.active && s.rate > 0) {\r\n            uint256 timePassed = block.timestamp - s.lastClaim;\r\n            uint256 pendingTokens = timePassed * s.rate;\r\n            return balances[_user] + pendingTokens;\r\n        }\r\n        \r\n        return balances[_user];\r\n    }\r\n\r\n    // This function fixes the \"getClaimedBalance is not a function\" error\r\n    function getClaimedBalance(address _user) external view returns (uint256) {\r\n        return balances[_user];\r\n    }\r\n}\r\n",
  "sourcePath": "D:\\StreamFi_Project\\contracts\\StreamFi.sol",
  "compiler": {
    "name": "solc",
    "version": "0.8.21+commit.d9974bed.Emscripten.clang"
  },
  "schemaVersion": "3.4.16",
  "updatedAt": "2025-11-10T15:37:49.755Z",
  "networkType": "ethereum",
  "devdoc": {
    "kind": "dev",
    "methods": {},
    "version": 1
  },
  "userdoc": {
    "kind": "user",
    "methods": {},
    "version": 1
  }
}