{
  "contractName": "StreamFi",
  "abi": [
    {
      "anonymous": false,
      "inputs": [
        {
          "indexed": true,
          "internalType": "address",
          "name": "user",
          "type": "address"
        },
        {
          "indexed": false,
          "internalType": "uint256",
          "name": "amount",
          "type": "uint256"
        }
      ],
      "name": "StreamClaimed",
      "type": "event"
    },
    {
      "anonymous": false,
      "inputs": [
        {
          "indexed": true,
          "internalType": "address",
          "name": "user",
          "type": "address"
        },
        {
          "indexed": false,
          "internalType": "uint256",
          "name": "rate",
          "type": "uint256"
        }
      ],
      "name": "StreamStarted",
      "type": "event"
    },
    {
      "anonymous": false,
      "inputs": [
        {
          "indexed": true,
          "internalType": "address",
          "name": "user",
          "type": "address"
        }
      ],
      "name": "StreamStopped",
      "type": "event"
    },
    {
      "inputs": [],
      "name": "MIN_CLAIM_INTERVAL",
      "outputs": [
        {
          "internalType": "uint256",
          "name": "",
          "type": "uint256"
        }
      ],
      "stateMutability": "view",
      "type": "function",
      "constant": true
    },
    {
      "inputs": [
        {
          "internalType": "address",
          "name": "",
          "type": "address"
        }
      ],
      "name": "balances",
      "outputs": [
        {
          "internalType": "uint256",
          "name": "",
          "type": "uint256"
        }
      ],
      "stateMutability": "view",
      "type": "function",
      "constant": true
    },
    {
      "inputs": [
        {
          "internalType": "address",
          "name": "",
          "type": "address"
        }
      ],
      "name": "streams",
      "outputs": [
        {
          "internalType": "uint256",
          "name": "rate",
          "type": "uint256"
        },
        {
          "internalType": "uint256",
          "name": "lastClaim",
          "type": "uint256"
        },
        {
          "internalType": "bool",
          "name": "active",
          "type": "bool"
        }
      ],
      "stateMutability": "view",
      "type": "function",
      "constant": true
    },
    {
      "inputs": [
        {
          "internalType": "uint256",
          "name": "_rate",
          "type": "uint256"
        }
      ],
      "name": "startStream",
      "outputs": [],
      "stateMutability": "nonpayable",
      "type": "function"
    },
    {
      "inputs": [],
      "name": "stopStream",
      "outputs": [],
      "stateMutability": "nonpayable",
      "type": "function"
    },
    {
      "inputs": [],
      "name": "claimStream",
      "outputs": [],
      "stateMutability": "nonpayable",
      "type": "function"
    },
    {
      "inputs": [
        {
          "internalType": "address",
          "name": "_user",
          "type": "address"
        }
      ],
      "name": "getBalance",
      "outputs": [
        {
          "internalType": "uint256",
          "name": "",
          "type": "uint256"
        }
      ],
      "stateMutability": "view",
      "type": "function",
      "constant": true
    }
  ],
  "bytecode": "0x608060405234801561000f575f80fd5b5061048b8061001d5f395ff3fe608060405234801561000f575f80fd5b506004361061007a575f3560e01c8063cd6606e211610058578063cd6606e214610108578063e4951f3214610110578063f3b65fb214610118578063f8b2cb4f1461012b575f80fd5b806327e235e31461007e57806383699275146100b0578063c01d76d5146100fe575b5f80fd5b61009d61008c3660046103ba565b60016020525f908152604090205481565b6040519081526020015b60405180910390f35b6100e16100be3660046103ba565b5f6020819052908152604090208054600182015460029092015490919060ff1683565b6040805193845260208401929092521515908201526060016100a7565b610106610153565b005b61009d600581565b6101066101e7565b6101066101263660046103e7565b610310565b61009d6101393660046103ba565b6001600160a01b03165f9081526001602052604090205490565b335f908152602081905260409020600281015460ff166101ae5760405162461bcd60e51b815260206004820152601160248201527053747265616d206e6f742061637469766560781b60448201526064015b60405180910390fd5b60028101805460ff1916905560405133907fc8df9387463bad688e6bee33a5517e1226baa5a9d109b77f5602f6cd46986f9b905f90a250565b335f90815260208190526040902080546102355760405162461bcd60e51b815260206004820152600f60248201526e139bc81cdd1c99585b48199bdd5b99608a1b60448201526064016101a5565b600581600101546102469190610412565b4210156102865760405162461bcd60e51b815260206004820152600e60248201526d21b630b4b6903a37b79039b7b7b760911b60448201526064016101a5565b5f816001015442610297919061042b565b82549091505f906102a8908361043e565b335f908152600160205260408120805492935083929091906102cb908490610412565b909155505042600184015560405181815233907f77f1af9635c992f9b354c06f732cc27c28f021ea0fecfbf4bec2329401c9663f9060200160405180910390a2505050565b5f81116103575760405162461bcd60e51b815260206004820152601560248201527452617465206d75737420626520706f73697469766560581b60448201526064016101a5565b335f81815260208181526040918290208481554260018083019190915560028201805460ff1916909117905591518481529192917f3869caee07d456958a31c5ac828d9dfc10dc42094e29536a52ddd10cbd420413910160405180910390a25050565b5f602082840312156103ca575f80fd5b81356001600160a01b03811681146103e0575f80fd5b9392505050565b5f602082840312156103f7575f80fd5b5035919050565b634e487b7160e01b5f52601160045260245ffd5b80820180821115610425576104256103fe565b92915050565b81810381811115610425576104256103fe565b8082028115828204841417610425576104256103fe56fea264697066735822122004437c9618586c1df6ad68518b82345f7115b4ce66a803384043b33a79f2fa5f64736f6c63430008150033",
  "immutableReferences": {},
  "source": "// SPDX-License-Identifier: MIT\r\npragma solidity ^0.8.0;\r\n\r\ncontract StreamFi {\r\n    struct Stream {\r\n        uint256 rate;        // tokens per second\r\n        uint256 lastClaim;   // timestamp of last claim\r\n        bool active;         // streaming status\r\n    }\r\n\r\n    mapping(address => Stream) public streams;\r\n    mapping(address => uint256) public balances;\r\n\r\n    uint256 public constant MIN_CLAIM_INTERVAL = 5; // minimum 5 seconds between claims\r\n\r\n    event StreamStarted(address indexed user, uint256 rate);\r\n    event StreamStopped(address indexed user);\r\n    event StreamClaimed(address indexed user, uint256 amount);\r\n\r\n    function startStream(uint256 _rate) external {\r\n        require(_rate > 0, \"Rate must be positive\");\r\n        Stream storage s = streams[msg.sender];\r\n        s.rate = _rate;\r\n        s.lastClaim = block.timestamp;\r\n        s.active = true;\r\n        emit StreamStarted(msg.sender, _rate);\r\n    }\r\n\r\n    function stopStream() external {\r\n        Stream storage s = streams[msg.sender];\r\n        require(s.active, \"Stream not active\");\r\n        s.active = false;\r\n        emit StreamStopped(msg.sender);\r\n    }\r\n\r\n    function claimStream() external {\r\n        Stream storage s = streams[msg.sender];\r\n        require(s.rate > 0, \"No stream found\");\r\n        require(block.timestamp >= s.lastClaim + MIN_CLAIM_INTERVAL, \"Claim too soon\");\r\n\r\n        uint256 timePassed = block.timestamp - s.lastClaim;\r\n        uint256 amount = timePassed * s.rate;\r\n\r\n        balances[msg.sender] += amount;\r\n        s.lastClaim = block.timestamp;\r\n\r\n        emit StreamClaimed(msg.sender, amount);\r\n    }\r\n\r\n    function getBalance(address _user) external view returns (uint256) {\r\n        return balances[_user];\r\n    }\r\n}\r\n",
  "sourcePath": "D:\\StreamFi_Project\\contracts\\StreamFi.sol",
  "compiler": {
    "name": "solc",
    "version": "0.8.21+commit.d9974bed.Emscripten.clang"
  },
  "schemaVersion": "3.4.16",
  "updatedAt": "2025-11-04T12:50:09.384Z",
  "networkType": "ethereum",
  "devdoc": {
    "kind": "dev",
    "methods": {},
    "version": 1
  },
  "userdoc": {
    "kind": "user",
    "methods": {},
    "version": 1
  }
}